:100000000C942A000C943F000C943F000C943F0089
:100010000C943F000C943F000C943F000C943F0064
:100020000C943F000C943F000C943F000C943F0054
:100030000C943F000C943F000C943F000C943F0044
:100040000C943F000C943F000C943F000C943F0034
:100050000C943F0011241FBECFE5D8E0DEBFCDBF1A
:1000600010E0A0E6B0E0E0EEFBE002C005900D92EB
:10007000AA3CB107D9F70E9411030C94EE050C9429
:100080000000CF92DF92EF92FF920F931F93CF93D6
:10009000DF9304E610E0C0E6D0E00F2EF4E6CF2EAA
:1000A000F0E0DF2EF02DF80161918F0141E082E058
:1000B0000E948B037E0140E0699182E00E948B03E5
:1000C00041E0F701608182E00E94CC04CC15DD059F
:1000D00051F7DF91CF911F910F91FF90EF90DF903B
:1000E000CF9008956F927F928F929F92AF92BF921E
:1000F000CF92DF92EF92FF920F931F93CF93DF93F4
:100100000F2EF4E6EF2EF0E0FF2EF02D08E610E0C3
:10011000E701699141E082E00E941304C017D10712
:10012000C1F7C12CD12C4601570140E0F701608195
:1001300082E00E941304C0E6D0E0612C712C8301A0
:10014000699182E00E94970481110BC0000F111F7A
:10015000000F111F06591F4FF801E80DF91D80818E
:1001600018C0FFEF6F1A7F0A84E06816710439F730
:10017000EFEFEE1AFE0A41E0F501608182E00E9495
:100180001304FFEFCF1ADF0A84E0C816D10459F632
:100190008FE3DF91CF911F910F91FF90EF90DF9050
:1001A000CF90BF90AF909F908F907F906F90089569
:1001B000EF92FF920F931F93CF93DF93E82E40E0CF
:1001C00061E084E00E94130441E062E084E00E9468
:1001D0001304C4E0D0E0F12C8701A7010C2E02C06B
:1001E000559547950A94E2F741706C2F84E00E9480
:1001F00013042196C830D10579F741E060E084E02E
:100200000E94130462E070E080E090E00E94A90286
:1002100040E060E084E00E941304C4E0E12CF12C93
:10022000A8010E2C02C0559547950A94E2F741703B
:100230006C2F84E00E9413048FEFE81AF80ACF5F56
:10024000C83071F741E060E084E00E94130462E08E
:1002500070E080E090E00E94A90240E060E084E06D
:100260000E941304DF91CF911F910F91FF90EF90A7
:100270000895EF92FF920F931F93CF93DF93E82E91
:1002800040E061E084E00E94130440E062E084E02A
:100290000E941304C4E0D0E0F12C8701A7010C2ECA
:1002A00002C0559547950A94E2F741706C2F84E09F
:1002B0000E9413042196C830D10579F741E060E02F
:1002C00084E00E94130462E070E080E090E00E940D
:1002D000A90240E060E084E00E941304C4E0E12C45
:1002E000F12CA8010E2C02C0559547950A94E2F70F
:1002F00041706C2F84E00E9413048FEFE81AF80A13
:10030000CF5FC83071F741E060E084E00E941304E1
:1003100062E070E080E090E00E94A90240E060E0CE
:1003200084E00E941304DF91CF911F910F91FF9001
:10033000EF900895EF92FF920F931F93CF93DF9367
:1003400041E062E084E00E948B0341E061E084E0F0
:100350000E948B0341E060E084E00E948B0361E037
:1003600084E00E946F0362E370E080E090E00E940E
:10037000A902809168008B7F88608093680082E288
:100380000E943901809168000E94390161E070E0AB
:1003900080E090E00E94A902809169000E943901EA
:1003A00061E070E080E090E00E94A90281E00E949C
:1003B000390162E070E080E090E00E94A90286E0EE
:1003C0000E94390162E070E080E090E00E94A902A2
:1003D00080E40E943901CAE7D0E00F2EFAEBEF2E3D
:1003E000F0E0FF2EF02D0AC089910E94D800C017BE
:1003F000D107D1F7E801E016F10621F08E01085F80
:100400001F4FF2CF80E80E943901DF91CF911F91F9
:100410000F91FF90EF900895813019F0823029F00C
:10042000089580E80E943901089580EC0E94390106
:1004300008958A3020F4805D0E94D80008950E94BB
:10044000D8000895BF92CF92DF92EF92FF920F9360
:100450001F93CF93DF93EC01611148C0C880D9800E
:10046000EA80FB80C114D104E104F10421F480E0AE
:100470000E94190246C0D0E019E0C12FCD1B6C2F9D
:100480008AE00E94EE029B01AC01C701B6010E9406
:100490006005232B242B252B29F1DA3090F56C2FC6
:1004A0008AE00E94EE029B01AC01C701B6010E94E6
:1004B0006005B62E072F182FD92F6C2F8AE00E94C7
:1004C000EE029B01AC01C701B6010E946005822FBC
:1004D0000E941902C150CB2CD02EE12EFD2ECF3F11
:1004E000F1F60FC0DF5FDA3041F60BC0613049F43E
:1004F0008881882331F021960E9419028991811107
:10050000FBCFDF91CF911F910F91FF90EF90DF9084
:10051000CF90BF900895CF93DF93882341F0D82FD9
:10052000C0E084E10E943901CF5FDC13FACFDF9194
:10053000CF910895CF93DF93882341F0D82FC0E067
:1005400080E10E943901CF5FDC13FACFDF91CF91B8
:1005500008958F929F92AF92BF92CF92DF92EF92C7
:10056000FF920F939B01AC0160EA76E881E090E096
:100570000E945005665679408109910929EB35E7BB
:1005800049E757E00E948D0500E20E94BA05822EDD
:10059000932EA42EB52EB694A79497948794B694D0
:1005A000A7949794879481149104A104B10461F0F5
:1005B00080E090E0DC0100000196A11DB11D8816CD
:1005C0009906AA06BB06B9F70F91FF90EF90DF904E
:1005D000CF90BF90AF909F908F900895CF92DF9271
:1005E000EF92FF92C82EF62F662391F0E0E061E0D3
:1005F00070E080E090E0D12CE12CF12C9B01AC016B
:10060000C701B6010E945005EF5FFE13F7CF04C08B
:1006100061E070E080E090E0FF90EF90DF90CF909D
:100620000895CF93DF9300D0CDB7DEB70E949A0133
:100630000E94410061E08AEB90E00E94220282E089
:100640000E940C0280E289838A830E94720089835F
:1006500089818F33D1F3898189818A3068F48981D6
:10066000805D8A838A810E94190264EF71E080E0D4
:1006700090E00E94A902E9CF8981833251F481E0A0
:100680000E949A0264EF71E080E090E00E94A9026B
:10069000DCCF89818A3251F481E00E948B0264EFC1
:1006A00071E080E090E00E94A902CFCF898184347C
:1006B00051F480E20E94190264EF71E080E090E062
:1006C0000E94A902C2CF89818A838A810E9419026D
:1006D00064EF71E080E090E00E94A902B6CF613043
:1006E00009F46FEF823061F018F4813031F011C0FD
:1006F000833049F0843051F00CC06ABB80E008952B
:1007000067BB80E0089564BB80E0089561BB80E032
:10071000089581E00895683008F07FC0423008F005
:100720007EC0823031F118F4813039F07AC08330E4
:10073000E1F1843009F455C074C041110DC09AB381
:1007400021E030E002C0220F331F6A95E2F7822FCA
:10075000809589238ABB0AC02AB381E090E002C059
:10076000880F991F6A95E2F7822B8ABB8ABB80E0CB
:10077000089541110DC097B321E030E002C0220F6F
:10078000331F6A95E2F7822F8095892387BB0AC0C1
:1007900027B381E090E002C0880F991F6A95E2F7C5
:1007A000822B87BB87BB80E0089541110DC094B3B5
:1007B00021E030E002C0220F331F6A95E2F7822F5A
:1007C0008095892384BB0AC024B381E090E002C0F5
:1007D000880F991F6A95E2F7822B84BB84BB80E067
:1007E000089541110DC091B321E030E002C0220F05
:1007F000331F6A95E2F7822F8095892381BB0AC057
:1008000021B381E090E002C0880F991F6A95E2F75A
:10081000822B81BB81BB80E0089582E0089583E054
:10082000089581E00895683008F07BC0423008F0F8
:100830007AC0823029F118F4813039F076C08330E3
:10084000D1F1843009F452C070C041110DC02BB3F6
:1008500081E090E002C0880F991F6A95E2F78095C9
:1008600082238BBB80E008952BB381E090E002C02F
:10087000880F991F6A95E2F7822B8BBB80E0089561
:1008800041110DC028B381E090E002C0880F991F8C
:100890006A95E2F78095822388BB80E0089528B3AB
:1008A00081E090E002C0880F991F6A95E2F7822BE1
:1008B00088BB80E0089541110DC025B381E090E030
:1008C00002C0880F991F6A95E2F78095822385BB45
:1008D00080E0089525B381E090E002C0880F991F61
:1008E0006A95E2F7822B85BB80E0089541110DC027
:1008F00022B381E090E002C0880F991F6A95E2F769
:100900008095822382BB80E0089522B381E090E04D
:1009100002C0880F991F6A95E2F7822B82BB80E0A4
:10092000089582E0089583E0089581E00895683095
:1009300078F5823091F018F4813031F02BC083309B
:10094000A9F08430E1F026C089B390E002C095950B
:1009500087956A95E2F78170089586B390E002C0AA
:10096000959587956A95E2F78170089583B390E035
:1009700002C0959587956A95E2F78170089580B3D6
:1009800090E002C0959587956A95E2F78170089589
:1009900083E0089582E00895423008F07BC068301B
:1009A00008F07AC0823029F118F4813039F076C02D
:1009B0008330D1F1843009F452C070C041110DC0B0
:1009C0002BB381E090E002C0880F991F6A95E2F78F
:1009D000809582238BBB80E008952BB381E090E06B
:1009E00002C0880F991F6A95E2F7822B8BBB80E0CB
:1009F000089541110DC028B381E090E002C0880F36
:100A0000991F6A95E2F78095822388BB80E008955C
:100A100028B381E090E002C0880F991F6A95E2F741
:100A2000822B88BB80E0089541110DC025B381E081
:100A300090E002C0880F991F6A95E2F780958223A3
:100A400085BB80E0089525B381E090E002C0880F67
:100A5000991F6A95E2F7822B85BB80E008954111CA
:100A60000DC022B381E090E002C0880F991F6A9503
:100A7000E2F78095822382BB80E0089522B381E073
:100A800090E002C0880F991F6A95E2F7822B82BB23
:100A900080E0089583E0089582E0089581E008955C
:100AA000DB018F939F930E948205BF91AF91A29F1C
:100AB000800D911DA39F900DB29F900D112408955C
:100AC000A1E21A2EAA1BBB1BFD010DC0AA1FBB1F52
:100AD000EE1FFF1FA217B307E407F50720F0A21BC4
:100AE000B30BE40BF50B661F771F881F991F1A9431
:100AF00069F760957095809590959B01AC01BD015B
:100B0000CF0108950E94D605A59F900DB49F900D2A
:100B1000A49F800D911D11240895E894DF93CF9335
:100B2000FC01DB010E94D6057F936F93E9019A01D6
:100B3000AC01BF93AF933F932F93DF010E94D60583
:100B400026F46C1B7D0B820B930B9E01EB01FC01C9
:100B50000E94E505AF91BF912F913F910E94E5055D
:100B6000BE01CF01F9012F913F91CF91DF910895FF
:100B700097FB10F8169400080F93083098F008506F
:100B8000232F342F452F562F672F782F892F902D05
:100B9000F4CF0594979587957795679557954795E1
:100BA000379527950A95AAF70F910895A29FB0014E
:100BB000B39FC001A39F700D811D1124911DB29F91
:100BC000700D811D1124911D08950E94D605460FB8
:100BD000571FC81FD91F08F431960895F894FFCF06
:100BE0000302010004050607280F01020341040562
:100BF00006420708094323002A44000A1F1F0E0467
:100C00000000040E1515040400000E1F1F1F000E27
:100C1000000000040E1F0E040000040E1F1B110034
:100C20000000111B0E040E1B11001F15151F1515BA
:100C30001F000E1D191F0E001F00577269746520DA
:0A0C4000262045646974203A000084
:00000001FF
